8=FIX.4.4|9=65|35=A|34=5|49=BANZAI|52=20231123-17:20:39.148|56=EXEC|98=0|108=30|10=224|