8=FIX.4.4|9=65|35=A|34=4|49=EXEC|52=20231123-17:20:39.192|56=BANZAI|98=0|108=30|10=222|