8=FIX.4.4|9=130|35=D|34=6|49=BANZAI|52=20231123-17:20:43.399|56=EXEC|11=1700760043390|21=1|38=100|40=1|54=1|55=AAPL|59=0|60=20231123-17:20:43.398|10=094|